:100000000C940A010C9449050C9422050C94FC07ED
:100010000C94FC070C94FC070C9432010C943201F4
:100020000C9432010C9432010C9432010C94320184
:100030000C9432010C9432010C9432010C94320174
:100040000C94D8040C9432010C94CC030C94A603A9
:100050000C9432010C9432010C9432010C94320154
:100060000C94CE060C9432014E414E494E495459DF
:10007000494E46CDCCCC3D0AD7233C17B7D1387773
:10008000CC2B329595E6241FB14F0A000020410089
:1000900000C84200401C4620BCBE4CCA1B0E5AAED3
:1000A000C59D7400407A10F35A00A0724E180900E2
:1000B00010A5D4E80000E87648170000E40B5402CD
:1000C0000000CA9A3B000000E1F505000080969808
:1000D00000000040420F000000A086010000001058
:1000E0002700000000E8030000000064000000009A
:1000F000000A00000000000100000000002C76D87B
:1001000088DC674F0823DFC1DFAE59E1B1B796E560
:10011000E3E453C63AE651997696E8E6C28426EBC4
:10012000898C9B62ED407C6FFCEFBC9C9F40F2BAD7
:10013000A56FA5F490055A2AF75C936B6CF9676D6F
:10014000C11BFCE0E40D47FEF520E6B500D0ED90C4
:100150002E0300943577050080841E080000204E91
:100160000A000000C80C333333330F986E1283112A
:1001700041EF8D2114893BE65516CFFEE6DB18D101
:10018000844B381BF77C1D901DA4BBE424203284D3
:10019000725E228100C9F124ECA1E53D2700000038
:1001A0000800020100000304070000000000000036
:1001B0000041542B434D474C3D2252454320554E60
:1001C00052454144222C310D0A0000000000240059
:1001D00027002A000000000023002600290000005C
:1001E0000000250028002B00040404040404040477
:1001F00002020202020203030303030301020408D2
:100200001020408001020408102001020408102080
:100210006012441211241FBECFEFD8E0DEBFCDBF65
:1002200027E0ACEDB2E001C01D92AA30B207E1F7C1
:1002300012E0A0E0B1E0E6E0FAE302C005900D9222
:10024000AC3DB107D9F711E0C9E0D1E004C0219776
:10025000FE010E94131AC830D107C9F70E94C20BD1
:100260000C94F61C0C940000FC01538D448D252F3A
:1002700030E0842F90E0821B930B541710F0CF9640
:10028000089501970895FC01918D828D981761F072
:10029000828DDF01A80FB11D5D968C91928D9F5FBD
:1002A0009F73928F90E008958FEF9FEF0895FC0168
:1002B000918D828D981731F0828DE80FF11D858D1B
:1002C00090E008958FEF9FEF0895FC01918D228DAE
:1002D000892F90E0805C9F4F821B91098F73992733
:1002E000089584EF95E00E94650121E0892B09F4CF
:1002F00020E0822F0895FC01848DDF01A80FB11D3D
:10030000A35ABF4F2C91848D90E001968F7399274B
:10031000848FA689B7892C93A089B1898C91837029
:1003200080648C93938D848D981306C00288F38922
:10033000E02D80818F7D80830895EF92FF920F934F
:100340001F93CF93DF93EC0181E0888F9B8D8C8D81
:10035000981305C0E889F989808185FD26C0F62EAD
:100360000B8D10E00F5F1F4F0F731127E02E8C8D48
:10037000E8120CC00FB607FCFACFE889F989808132
:1003800085FFF5CFCE010E947B01F1CF8B8DFE0161
:10039000E80FF11DE35AFF4FF0829FB7F8940B8FDF
:1003A000EA89FB89808180620AC09FB7F894EE8950
:1003B000FF896083E889F989808183708064808304
:1003C0009FBF81E090E0DF91CF911F910F91FF904F
:1003D000EF900895CF93DF93EC01888D8823C9F0C7
:1003E000EA89FB89808185FD05C0A889B9898C913E
:1003F00086FD0FC00FB607FCF5CF808185FFF2CFD9
:10040000A889B9898C9185FFEDCFCE010E947B012F
:10041000E7CFDF91CF91089580E090E0892B29F01C
:100420000E94710181110C94000008953FB7F89467
:100430008091410490914204A0914304B0914404FE
:1004400026B5A89B05C02F3F19F00196A11DB11D2F
:100450003FBFBA2FA92F982F8827820F911DA11D6A
:10046000B11DBC01CD0142E0660F771F881F991FA7
:100470004A95D1F7089508958091E00290E0209187
:10048000E102821B9109089585ED8093BC00809163
:10049000BC0084FDFCCF1092770408954091F903CD
:1004A000262F30E0240F311D21323105DCF420915C
:1004B00077042430C9F4FC0180E090E0861758F4FA
:1004C0003091F9032191DC01A752BC4FA30FB11D5C
:1004D0002C930196F3CF8091F903680F6093F90391
:1004E00080E0089581E0089582E0089508950895D8
:1004F0000895E091E1028091E002E81730F4F0E025
:10050000E45EFB4F808190E008958FEF9FEF0895A8
:100510009091E1028091E002981750F4E92FF0E009
:10052000E45EFB4F208130E09F5F9093E10202C0C8
:100530002FEF3FEFC9010895CF92DF92EF92FF9224
:100540000F931F93CF93DF937C01CB018A012091FE
:100550007804222389F0EB016B01C40ED51ECC1563
:10056000DD0569F06991D701ED91FC910190F08171
:10057000E02DC7010995F3CF642F0E944E02C801F8
:10058000DF91CF911F910F91FF90EF90DF90CF906F
:100590000895CF93DF931F92CDB7DEB76983209183
:1005A00078042223D1F020919B04203240F021E0F6
:1005B00030E0FC013383228380E090E015C080911D
:1005C0007904E82FF0E0E658FB4F998190838F5F24
:1005D0008093790480939B0405C061E0CE0101966D
:1005E0000E944E0281E090E00F90DF91CF9108953C
:1005F0002091E4023091E5022817390771F49091B7
:10060000E2028091E302981741F0E091E202F0E00B
:10061000E756FC4F808190E008958FEF9FEF08959B
:100620001F93CF93DF93DC015C968D919C915D9736
:10063000009739F421E030E013963C932E93129703
:100640003BC05196ED91FC91529750962C9150974A
:10065000322F30951FB75E964C915E97742F727053
:1006600041FD6095F8944081772311F0422B01C041
:1006700043234083EC012197F1F748E0508160FF6C
:1006800002C0522B01C053235083EC012197F1F794
:100690006695415099F78081772319F083238083F1
:1006A00002C0282B20831FBF5C968D919C915D9783
:1006B0000197F1F781E090E0DF91CF911F910895CC
:1006C0002091E4023091E5022817390771F48091F6
:1006D000E3022091E20290E0805C9F4F821B91092F
:1006E00060E470E00E94EB19089580E090E00895C6
:1006F0002091E4023091E50228173907B9F490916E
:10070000E2028091E302981789F0E091E202F0E0C2
:10071000E756FC4F80812091E20230E02F5F3F4F8F
:100720002F7333272093E20290E008958FEF9FEF1D
:100730000895089580E090E0089581E090E090931E
:10074000E7028093E60208950E94191A1F920F9201
:100750000FB60F9211242F933F934F935F936F9394
:100760007F938F939F93AF93BF93EF93FF9384EF08
:1007700095E00E947B01FF91EF91BF91AF919F9116
:100780008F917F916F915F914F913F912F910F903A
:100790000FBE0F901F9018951F920F920FB60F92D9
:1007A00011242F938F939F93EF93FF93E09104066F
:1007B000F09105068081E0910A06F0910B0682FD1A
:1007C00012C0908180910D068F5F8F7320910E066D
:1007D000821751F0E0910D06F0E0EC50FA4F958F42
:1007E00080930D0601C08081FF91EF919F918F91C1
:1007F0002F910F900FBE0F901F901895833081F0AE
:1008000028F4813099F08230A1F008958730A9F062
:100810008830B9F08430D1F4809180008F7D03C09E
:10082000809180008F7780938000089584B58F77C2
:1008300002C084B58F7D84BD08958091B0008F770C
:1008400003C08091B0008F7D8093B00008951F9306
:10085000CF93DF93282F30E0F901E356FE4F8491C8
:10086000F901E450FE4FD491F901E851FE4FC491D3
:10087000CC23C1F0162F81110E94FE03EC2FF0E073
:10088000EE0FFF1FE252FE4FA591B4919FB7F8946F
:10089000111104C08C91D095D82302C0EC91DE2BAD
:1008A000DC939FBFDF91CF911F910895CF93DF938A
:1008B00090E0FC01E450FE4F2491FC01E851FE4F12
:1008C0008491882361F190E0880F991FFC01E65321
:1008D000FE4FC591D491FC01E252FE4FA591B49117
:1008E000611109C09FB7F89488812095822388837D
:1008F000EC912E230BC0623061F49FB7F89488818D
:10090000322F309583238883EC912E2B2C939FBF1D
:1009100006C08FB7F894E8812E2B28838FBFDF9114
:10092000CF9108958F929F92AF92BF92CF92DF9214
:10093000EF92FF926B017C010E9416024B015C0159
:10094000C114D104E104F104F1F00E941602DC01AB
:10095000CB0188199909AA09BB09883E9340A105D2
:10096000B10570F321E0C21AD108E108F10888EE60
:10097000880E83E0981EA11CB11CC114D104E104AF
:10098000F10419F7DDCFFF90EF90DF90CF90BF908B
:10099000AF909F908F9008952FB7F89460913D0489
:1009A00070913E0480913F04909140042FBF0895C0
:1009B0001F920F920FB60F9211242F933F938F9394
:1009C0009F93AF93BF9380913D0490913E04A0917B
:1009D0003F04B091400430913C0423E0230F2D37B5
:1009E00020F40196A11DB11D05C026E8230F029633
:1009F000A11DB11D20933C0480933D0490933E04BF
:100A0000A0933F04B093400480914104909142042C
:100A1000A0914304B09144040196A11DB11D80939F
:100A2000410490934204A0934304B0934404BF91C3
:100A3000AF919F918F913F912F910F900FBE0F908B
:100A40001F9018951F920F920FB60F9211242F939B
:100A50003F934F935F936F937F938F939F93AF9346
:100A6000BF93EF93FF93E0910201F0910301099589
:100A7000FF91EF91BF91AF919F918F917F916F9176
:100A80005F914F913F912F910F900FBE0F901F904C
:100A900018951F920F920FB60F9211242F933F9328
:100AA0004F935F936F937F938F939F93AF93BF9376
:100AB000EF93FF93E0910001F09101010995FF91FF
:100AC000EF91BF91AF919F918F917F916F915F91C6
:100AD0004F913F912F910F900FBE0F901F9018953F
:100AE0002F923F924F925F926F927F928F929F923E
:100AF000AF92BF92CF92DF92EF92FF920F931F932C
:100B0000CF93DF93CDB7DEB728970FB6F894DEBF4B
:100B10000FBECDBFD82EC62E4F8349010E94CC04F4
:100B20002B013C012D2C220CE12C1886FF24F39480
:100B30002F81A22EB12C33243A94C801A0E0B0E05A
:100B40008B839C83AD83BE839F81E91608F084C0AC
:100B5000F0927804D0929A041092790410929B0437
:100B60006C2D86EE95E00E94C90281E00E94D50AB4
:100B7000F0927804D0929A041092790410929B0417
:100B8000809177048111FCCFC5018E1991098132C2
:100B9000910514F080E290E0813208F080E2F0925A
:100BA0007704F092760430927504109274049FEFEB
:100BB000980F90937304F0925204909152049229EA
:100BC0009093520490915104913071F41092510419
:100BD000909152049093BB009091BC0093FDF8CF8C
:100BE000A5ECA093BC0003C0B5EEB093BC009091FF
:100BF00077049130E1F390917404981710F4809188
:100C00007404E3E5F4E0ACE1B4E090E0981721F07F
:100C100021912D939F5FFACF1092E1029093E00211
:100C20009091E0028091E102981709F447C0011504
:100C3000110589F10E94CC04DC01CB0184199509CE
:100C4000A609B7092B813C814D815E8182179307EC
:100C5000A407B50700F132C001151105A9F10E94E2
:100C6000CC04DC01CB0184199509A609B70920E061
:100C700030E080179107A207B30730F14F81242F8E
:100C800030E05885852F550F990B82179307E4F4B0
:100C90008FEF888719C0D401E885AE0FB11DE7FD3D
:100CA000BA95BA83A98386EE95E00E948802A9814D
:100CB000BA818C93B885BF5FB887B2CF8F818132FC
:100CC00008F080E2E80E40CF888528960FB6F894A9
:100CD000DEBF0FBECDBFDF91CF911F910F91FF906F
:100CE000EF90DF90CF90BF90AF909F908F907F90CC
:100CF0006F905F904F903F902F900895BF92CF924A
:100D0000DF92EF92FF920F931F93CF93DF9300D068
:100D1000CDB7DEB7F82EE62EC42EB22ED02E08EEBA
:100D200013E09E012E5F3F4F41E00E947005882333
:100D300041F14C2D50E04B1951094F5F5F4F81E05D
:100D400090E002C0880F991FBA94E2F70197042E31
:100D500001C0880F0A94EAF72D2D01C0220F4A9591
:100D6000EAF7382F30959A8193238223892B8A833F
:100D70008983AE014F5F5F4F6E2D8F2D0E947B0BDD
:100D800001C080E00F900F90DF91CF911F910F91E4
:100D9000FF90EF90DF90CF90BF9008951F920F9239
:100DA0000FB60F9211242F933F934F935F936F933E
:100DB0007F938F939F93AF93BF93EF93FF93809114
:100DC000B900887F803609F49CC068F5883209F440
:100DD0005BC090F4803109F454C038F4882309F4DE
:100DE000F6C0883009F44DC0F6C0883109F44CC013
:100DF000803209F45DC0EFC0803409F468C048F463
:100E0000803309F455C0883309F0E5C08093750438
:100E1000D8C0803509F44FC0883509F45DC08834E6
:100E200009F0D9C0D6C0883909F4C7C0A8F48837FA
:100E300009F467C038F4883609F463C0803709F4D0
:100E400060C0C9C0883809F4B8C0803909F45FC0EF
:100E5000803809F0C0C05BC0803B09F486C038F41C
:100E6000803A09F466C0883A09F47FC0B4C0803C77
:100E700009F4A7C0883C09F4A4C0883B09F48AC0DF
:100E8000AAC08091520410C09091740480917304A0
:100E9000981770F5E091740481E08E0F80937404CC
:100EA000F0E0ED5AFB4F80818093BB0085EC86C05B
:100EB000809375048EC0E091740481E08E0F80935E
:100EC00074048091BB00F0E0ED5AFB4F8083909159
:100ED0007404809173046EC0E091740481E08E0FFD
:100EE000809374048091BB00F0E0ED5AFB4F808347
:100EF0008091760481116DC081E08093510484EA71
:100F000061C083E08093770410921B04CFCF80915F
:100F10001B04803208F051C0E0911B0481E08E0F69
:100F200080931B048091BB00F0E0E550FC4F808370
:100F3000BDCF85EC8093BC001092770480911B0498
:100F4000803230F4E0911B04F0E0E550FC4F108259
:100F500060911B0470E0E091DC02F091DD028BEF08
:100F600093E0099510921B0436C084E080937704C7
:100F70001092FA031092F903E091DE02F091DF0281
:100F800009958091F903811105C081E08093F903EF
:100F90001092D903E091FA0381E08E0F8093FA0357
:100FA000F0E0E752FC4F80818093BB009091FA0300
:100FB0008091F903981708F479CF85E88093BC00F5
:100FC0000AC085EC8093BC001092770404C0109294
:100FD00075040E944402FF91EF91BF91AF919F91E0
:100FE0008F917F916F915F914F913F912F910F90D2
:100FF0000FBE0F901F9018951F920F920FB60F9271
:1010000011242F933F934F935F936F937F938F930D
:101010009F93AF93BF93EF93FF93E091E402F0911E
:10102000E502309709F451C0968DA685B785858570
:1010300091FF04C09C91892329F447C09C91892386
:1010400009F043C0A389B4899C918589809589233F
:101050008C93868997890197F1F7608D718DA685AC
:10106000B785558538E020E0CB010197F1F7822F55
:1010700090E095958795282F4C91452309F020689D
:10108000315091F7868D81FD20958091E30290E0AB
:1010900001968F7399273091E202381749F0A09199
:1010A000E302B0E0A756BC4F2C938093E30203C049
:1010B000868D8160868F828D938D0197F1F7A3894C
:1010C000B4899C918589892B8C93FF91EF91BF9175
:1010D000AF919F918F917F916F915F914F913F91D0
:1010E0002F910F900FBE0F901F901895A091F205B1
:1010F000B091F305ED91FC9111970190F081E02DF5
:10110000682FCD0109940F931F93CF93DF93EC01C8
:101110008C01FE0101900020E9F73197EC1BFD0BDB
:10112000C8018C1B9D0B8E179F0730F4F80181912D
:101130008F010E947608EDCFDF91CF911F910F9123
:1011400008958091F2059091F305DC01ED91FC91F9
:101150000084F185E02D09940E94A108892B61F09B
:101160008091F2059091F305DC01ED91FC910284F0
:10117000F385E02D0995F0CF0895CF92DF92EF929D
:10118000FF920F931F93CF93DF936C017A018B0132
:10119000C0E0D0E0CE15DF0581F0D8016D918D0162
:1011A000D601ED91FC910190F081E02DC6010995E9
:1011B000892B11F02196EECF7E01C701DF91CF91EF
:1011C0001F910F91FF90EF90DF90CF900895E4EF83
:1011D000F5E0A089B18982E08C93A485B5851C9245
:1011E000A685B7858FEC8C93108EA489B58986E08F
:1011F0008C93A289B3898C9180618C93A289B389E5
:101200008C9188608C93A289B3898C9180688C932F
:101210000288F389E02D80818F7D80830895CF93AC
:10122000DF93DC018C9190E020E030E070E0F90188
:10123000E050FB4F408184131AC0ED01AE014A1B00
:101240005B0B4617570774F45991419190E054177E
:10125000A9F32F5F3F4F91E0203A310544F380E03E
:1012600090E009C09111F8CF81E090E004C02F5FB9
:101270003F4F90E0F1CFDF91CF910895CF92DF9271
:10128000EF92FF920F931F93CF93DF93CDB7DEB70B
:1012900064970FB6F894DEBF0FBECDBF7E012BE082
:1012A000E20EF11C81E9C82E86E0D82EF601668593
:1012B000778580899189870126E042E00E94571353
:1012C000F60162897389848995899E012F5F3F4F5A
:1012D0006901890126E042E00E945713DF92CF9214
:1012E000FF92EF9287E992E09F938F938CE994E0CD
:1012F0009F938F930E94431A0FB6F894DEBF0FBEE0
:10130000CDBF64960FB6F894DEBF0FBECDBFDF91A0
:10131000CF911F910F91FF90EF90DF90CF900895A4
:101320002F923F924F925F926F927F928F929F92F5
:10133000AF92BF92CF92DF92EF92FF920F931F93E3
:10134000CF93DF9300D01F92CDB7DEB78C012B0176
:10135000FC0101900020E9F731971F01281A390A92
:101360000E94CC044B015C01C12CD12C76011B8264
:101370001A82612C712C0E94A108892B29F180917D
:10138000F2059091F305DC01ED91FC910284F38567
:10139000E02D099589830E94CC046B017C01EA81D0
:1013A000FB81E00FF11F8081B9818B1306C08A8118
:1013B0009B8101969B838A8302C01B821A82AA8129
:1013C000BB812A163B0621F10E94CC04DC01CB0133
:1013D00088199909AA09BB0989389341A105B10562
:1013E00010F080E018C00E94CC04DC01CB018C1905
:1013F0009D09AE09BF09481659066A067B0608F022
:10140000BACFC114D104E104F10409F4B4CFE9CF97
:101410000E94AC0881E00F900F900F90DF91CF9168
:101420001F910F91FF90EF90DF90CF90BF90AF9002
:101430009F908F907F906F905F904F903F902F90F4
:101440000895CF93DF93EC018EEC91E00E94830826
:101450006CE47DE188E591E00E9490098823B1F178
:1014600064EF71E080E090E00E9492040E94AC087A
:1014700080EC92E00E9483088AEC92E00E9483084C
:1014800085ED92E00E9483086CE47DE189ED92E0B5
:101490000E9490098823D1F068EE73E080E090E02C
:1014A0000E949204CE010E94830864EF71E080E004
:1014B00090E00E9492048AE10E9476086CED75E04B
:1014C00088E591E0DF91CF910C94900980E0DF9165
:1014D000CF9108955F926F927F928F929F92AF9279
:1014E000BF92CF92DF92EF92FF920F931F93CF9311
:1014F000DF933C018B010E94CC044B015C01C12CA9
:10150000D12C7601C0E0D0E00E94A108892BD1F057
:101510008091F2059091F305DC01ED91FC9102843C
:10152000F385E02D0995582E0E94CC046B017C01B7
:10153000CE010196C60DD71D5882801791072CF554
:10154000EC01E2CFC017D10704F50E94CC04DC0106
:10155000CB0188199909AA09BB0989389341A105CA
:10156000B10598F40E94CC04DC01CB018C199D09D3
:10157000AE09BF098D3D9540A105B10528F2C11402
:10158000D104E104F10409F4BFCFDF91CF911F91A1
:101590000F91FF90EF90DF90CF90BF90AF909F9012
:1015A0008F907F906F905F900895282F30919B04CB
:1015B000313208F04AC0809177048111FCCF9091BC
:1015C0009A0442E040937704209376042FEF20930F
:1015D00075041092740430937304EAE7F4E0A3E511
:1015E000B4E020E0321721F041914D932F5FFACF04
:1015F0001092520420915204990F922B909352040E
:1016000090915104913061F41092510490915204E0
:101610009093BB009091BC0093FDF8CF95EC01C076
:1016200095EE9093BC00909177049230E1F3909105
:1016300075049F3F79F080917504803241F080916C
:101640007504803331F084E005C081E003C082E09E
:1016500001C083E01092790410929B0410927804E8
:1016600008950F931F93CF93DF93C7EFD6E008EE53
:1016700013E028EF36E04EE06BE388810E947005AE
:1016800089819A819827892798279093500480937D
:101690004F048B819C8198278927982790934E042B
:1016A00080934D048D819E81982789279827909358
:1016B0004C0480934B0489859A859827892798271D
:1016C00090934A04809349048B859C8598278927A9
:1016D000982790934804809347048D859E8598278A
:1016E000892798279093460480934504DF91CF91F2
:1016F0001F910F910895CF93DF93EA0191E09093AA
:10170000780480939A041092790410929B0486EED8
:1017100095E00E94C902688186EE95E00E94C902A8
:1017200081E00E94D50A91E0811190E0892FDF913C
:10173000CF9108956115710579F0FB0101900020AA
:10174000E9F73197AF01461B570BDC01ED91FC9196
:101750000280F381E02D099480E090E00895CF931A
:10176000DF93BC0188ED96E00E949A0BEC0166EDD8
:1017700072E088ED96E00E949A0B8C0F9D1FDF911E
:10178000CF910895CF93DF93CDB7DEB7E9970FB62A
:10179000F894DEBF0FBECDBF789484B5826084BD5F
:1017A00084B5816084BD85B5826085BD85B5816065
:1017B00085BD80916E00816080936E0010928100E3
:1017C000809181008260809381008091810081609E
:1017D000809381008091800081608093800080915F
:1017E000B10084608093B1008091B00081608093EB
:1017F000B00080917A00846080937A0080917A00B2
:10180000826080937A0080917A00816080937A0070
:1018100080917A00806880937A001092C1001092C3
:10182000E2051092E3051092E4051092E50510928E
:10183000A2051092A3051092A4051092A5050E947E
:10184000CC046B017C014B015C0128EB820E2BE088
:10185000921EA11CB11C0E94CC046C157D058E0546
:101860009F0528F086169706A806B906A0F760ED32
:1018700077E080E090E00E9492040E94E7080E94D6
:10188000CC046093A2057093A3058093A405909364
:10189000A5056CE371E084EF95E00E949A0B0E942D
:1018A000CC046B017C014B015C018AE0880E911C29
:1018B000A11CB11C0E94CC046C157D058E059F05F2
:1018C00028F086169706A806B906A0F711E010932F
:1018D000B60561E089E00E94560461E088E00E945C
:1018E000560461E087E00E94560461E086E00E94B1
:1018F000560461E08CE00E94560461E083E00E949F
:10190000560460E080E10E94560462E082E00E949A
:1019100056048DE993E0909301018093000180913A
:1019200069008C7F826080936900E89A1092E102DE
:101930001092E0021092790410929B0410927704A6
:10194000109376041092510461E082E10E94270412
:1019500061E083E10E9427048091B9008E7F80932B
:10196000B9008091B9008D7F8093B90088E480939D
:10197000B80085E48093BC0086E792E09093DF0294
:101980008093DE0287E792E09093DD028093DC0291
:101990000E94E7081092F3061092F2061092F106E8
:1019A0001092F0061092EF061092EE068DE991E08B
:1019B0009093F5068093F4069091E406963108F032
:1019C00058C02DEB30E03093EF062093EE062BE964
:1019D00031E03093F1062093F0062CE231E03093B1
:1019E000F3062093F20640916800983058F031E0F9
:1019F0009E3008F430E021E0822F01C0880F3A9534
:101A0000EAF701C084E0842B80936800983038F0B6
:101A10009E3040F0963148F020E030E008C02DE6DE
:101A200030E005C02BE630E002C02CE630E0309319
:101A3000EC062093EB06983030F481E001C0880F6B
:101A40009A95EAF70EC0292F30E09E3018F42850FE
:101A5000310902C02E50310981E001C0880F2A955A
:101A6000EAF78093ED068091F4069091F5060197D0
:101A7000F1F78091F2069091F306892B49F1E091FC
:101A8000E402F091E50296E0E83DF90709F13097AC
:101A900039F0A389B4899C918589809589238C9399
:101AA0008091F6068E7F8093F6061092E3021092E4
:101AB000E20288ED96E09093E5028093E402E091E3
:101AC000EB06F091EC0690818091ED06892B8083E6
:101AD00060E083E00E94270401E023E042E06BE63F
:101AE0008091F7060E947E0600E022E044E06BE170
:101AF0008091F7060E947E0622E044E06CE180912E
:101B0000F7060E947E06F090F70608EE13E09E01AD
:101B10002F5F3F4F41E06BE68F2D0E94700589815A
:101B20008F7B898389ABDE01D196BBABAAABAD01BC
:101B30006BE68F2D0E947B0B6CED75E080E090E0F2
:101B40000E94920461E083E00E94270468E873E148
:101B500080E090E00E9492048EE491E00E94AF0B3E
:101B60006E01B1E2CB0ED11C83E591E00E948308A7
:101B70006CE47DE188E591E00E949009882399F169
:101B80008DE591E00E9483086CE47DE188E591E0B9
:101B90000E949009F82E882331F1FE0131961192AE
:101BA000EC15FD05E1F703E010E089E691E00E9405
:101BB000830860E270E0CE0101960E946A0A64E741
:101BC00071E0CE0101960E94291A892B51F46CE232
:101BD00071E080E090E00E9492040150110929F721
:101BE00002C0F11019C060E089E00E94270464EF90
:101BF00071E080E090E00E94920461E089E00E9440
:101C0000270464EF71E080E090E00E9492048EE58A
:101C100092E00E94AF0BA8CF68EB7BE080E090E001
:101C20000E94920482E792E00E94AF0B81E891E06B
:101C30000E9483086CE47DE188E591E00E949009B0
:101C4000882309F43AC080E991E00E9483086CE49B
:101C50007DE188E591E00E949009882371F120E1FF
:101C6000422E27E2522E612C712C34E6C32ED12C49
:101C7000E12CF12CFE01B096FDABECAB95E0292EEA
:101C8000312CEDEAF1E08491ECE0F2E00491E8EF30
:101C9000F1E01491112309F46AC081110E94FE033E
:101CA000E12FF0E0EE0FFF1FEC52FE4FA591B49133
:101CB0008C91082309F45BC01BC060E872E088EDDA
:101CC00096E00E949A0B60E086E00E94270464EF91
:101CD00071E080E090E00E94920461E086E00E9462
:101CE000270464EF71E080E090E00E9492049ECFB0
:101CF00060E087E00E94270461E088E00E942704FA
:101D00008091E6029091E702892B09F49BC061E083
:101D10008CE00E9427040AE010E060E088E00E9466
:101D2000270464EF71E080E090E00E94920461E09B
:101D300088E00E94270464EF71E080E090E00E9458
:101D400092040150110949F760E08CE00E942704D9
:101D50008FE991E00E94210A0E943E098CE994E0FB
:101D60000E94210A1092E7021092E6026BC061E025
:101D700087E00E94270460E088E00E9427040E9418
:101D8000310B0091490410914A0464EF71E080E046
:101D900090E00E9492040E94310B8091490490913E
:101DA0004A04801B910B97FF03C09195819591097F
:101DB0008139914094F08091E8029091E902892B59
:101DC00061F481E090E09093E9028093E80264EF8F
:101DD00071E080E090E00E9492048091E80290918E
:101DE000E902892B79F161E08CE00E9427040AE086
:101DF00010E060E088E00E94270464EF71E080E07A
:101E000090E00E94920461E088E00E94270464EF61
:101E100071E080E090E00E9492040150110949F7BE
:101E200060E08CE00E9427048EEA91E00E94210A83
:101E30000E943E098CE994E00E94210A1092E90276
:101E40001092E8028091F2059091F305DC01ED918A
:101E5000FC910084F185E02D0995892B09F462C07D
:101E60008091F2059091F305DC01ED91FC910284E3
:101E7000F385E02D09959091EC029923E9F090917A
:101E8000EB022FEF290F2093EB02E091EA02911170
:101E900028C01092EC020E2E000CFF0BE351FD4FF8
:101EA000108265EC71E08DEE92E00E94291A892B78
:101EB00019F51092EA0236C0843259F0E091EA0234
:101EC0008A3269F491E09093EC02B2E0B093EB02B5
:101ED00009C091E09093EA028093ED0223C0E837B5
:101EE0000CF591E09E0F9093EA020E2E000CFF0B72
:101EF000E351FD4F808316C08091FF02813491F43D
:101F00006CEC71E08DEE92E00E94C913892B51F0C8
:101F10006CEC71E080E090E00E94C9138C010097A6
:101F200009F084C161E086E00E942704E1E02E1AF6
:101F3000310809F0A6CE8EEC91E00E9483086CE493
:101F40007DE188E591E00E94900968EE73E080E011
:101F500090E00E949204E1EBF1E084918F010F5F29
:101F60001F4F882329F084910E947608F801F5CF4D
:101F70008E010F5F1F4FF80111928CA99DA98E173A
:101F80009F07D1F76EE170E0CE0101960E946A0AC8
:101F90006AED71E0CE0101960E94291A892B41F069
:101FA00062E370E080E090E00E94920480E035C03F
:101FB0006CED75E088E591E00E9490098DED91E06F
:101FC0000E948308D8011D928D01EAA9FBA9EA1796
:101FD000FB07C1F76FE270E0CE0101960E946A0A2A
:101FE00066EF71E0CE0101960E94291A892BA1F0BB
:101FF0006AE370E0CE0101960E941E1A8C01892BC3
:1020000059F06CED75E088E591E00E949009C801F7
:1020100001960E947B1301C08FEF882E880F9908CC
:102020009092980380929703181419040CF0FBC047
:10203000ADB6BEB68DB79EB7805F91090FB6F89466
:102040009EBF0FBE8DBF0DB71EB70F5F1F4F8EEC2B
:1020500091E00E9483086CE47DE188E591E00E94B4
:10206000900968EE73E080E090E00E9492048DEFAA
:1020700091E00E9483084AE0BE016F5F7F4FC40178
:102080000E94F513CE0101960E94830886ED92E02E
:102090000E948308F801C80180519F4F11928E174A
:1020A0009F07E1F760EF70E0C8010E946A0A66E0EE
:1020B00072E0C8010E94291A8C01009709F45CC0E3
:1020C0006CE270E00E941E1A02964C0162E270E01F
:1020D0000E941E1A009799F09401A7E8B3E0FD0151
:1020E000E758F34049012817390730F42F5F3F4F75
:1020F000F40140814D93F3CFE957FC4F10826CE21D
:1021000070E0C4010E941E1A6CE270E001960E9409
:102110001E1A02964C0162E270E00E941E1A00979D
:1021200081F0AFE6B3E0FD01EF56F3408816990663
:1021300028F4F40121914F012D93F5CFE159FC4F83
:10214000108266ED72E0C8010E94291A0097A1F082
:10215000FC013296A0E0B5E020E030E081918D30C6
:1021600039F02F39310521F02F5F3F4F8D93F6CF96
:10217000F901E050FB4F10820FB6F894BEBE0FBEBF
:10218000ADBE00919703109198038DE092E00E94FC
:1021900083084AE0BE016F5F7F4FC8010E94F513BC
:1021A000CE0101960E94830886E192E00E94830896
:1021B0006CE47DE188E591E00E94900965E088E1AA
:1021C00092E00E940F09892B51F08EE192E00E946B
:1021D000210A0E943E098CE994E00E94210A63E0F2
:1021E00082E392E00E940F09892B71F061E08CE09C
:1021F0000E94270486E392E00E94210A0E943E0981
:102200008CE994E00E94210A63E088E492E00E9455
:102210000F09892B41F060E08CE00E9427048CE4D8
:1022200092E00E94210A0E940C0228CDFC01B0809D
:10223000FDE2BF1202C00F5F1F4FC8010E94991339
:102240009B01AC01A4E6B0E00E942819D801FD0171
:102250004D91242F042E000C330B205331092A30CA
:102260003105A8F34E3241F52181022E000C330BCB
:10227000205331092A303105F8F4AAE0A29FA001C9
:10228000A39F500D11248A01550F220B330B600FB1
:10229000711F821F931F0281002E000C110B00532F
:1022A00011090A30110540F4012E000C220B330BEA
:1022B000600F711F821F931FBDE2BB1208C08824EC
:1022C00099245401861A970AA80AB90A02C04B0138
:1022D0005C01C501B40120E432E44FE050E00E940B
:1022E000061920939B06C501B401A30192010E9427
:1022F0000619CA01B901A70196010E940619609347
:102300009C06C501B401A70196010E940619162F6B
:10231000CA01B901A70196010E94061960939D06A2
:1023200010939E066CEC71E080E090E00E94C9136F
:10233000892B09F4F7CD6CEC71E080E090E00E940D
:10234000C9135C01892B09F4EDCD6CEC71E080E0E0
:1023500090E00E94C913892B09F4E4CD6CEC71E084
:1023600080E090E00E94C9138C01892B09F4DACD3A
:102370006CEC71E080E090E00E94C913892B09F4B5
:10238000D1CDC5010E9477136EAB7FAB88AF99AFFB
:10239000C8010E9477134B015C0120E030E048EC5B
:1023A00052E46EA97FA988AD99AD0E947919609316
:1023B0009F067093A0068093A1069093A20620E04A
:1023C00030E048EC52E4C501B4010E9479196093F1
:1023D000A3067093A4068093A5069093A6066CECC2
:1023E00071E080E090E00E94C913009709F49ACD53
:1023F0000E94771326E53EE04DEE5FE30E94481809
:102400006093A7067093A8068093A9069093AA06E6
:102410006CEC71E080E090E00E94C913009709F431
:1024200081CD0E9477136093AB067093AC068093C6
:10243000AD069093AE066CEC71E080E090E00E94F7
:10244000C913009709F46ECD0E9499134B015C01EA
:10245000A70196010E9406196053784F7093980661
:1024600060939706CA01B901A70196010E94061957
:1024700060939906C501B401A30192010E94061957
:1024800020939A0660E04FCD8EE291E09093D906BA
:102490008093D8068091E4029091E502885D964091
:1024A00071F4E091EB06F091EC0690818091ED06DD
:1024B0008095892380831092E5021092E4020895AA
:1024C0000F931F93CF93DF931092F7051092F605A9
:1024D00088EE93E0A0E0B0E08093F8059093F905D2
:1024E000A093FA05B093FB052AE031E03093F5059F
:1024F0002093F40525EC30E030930106209300068C
:1025000024EC30E0309303062093020620EC30E008
:10251000309305062093040621EC30E03093070643
:102520002093060622EC30E030930906209308063B
:1025300026EC30E030930B0620930A0610920D062D
:1025400010920E0610920F06109210061092A60519
:102550001092A7051092A8051092A9051092AA053D
:102560001092AB051092AC051092AD051092AE051D
:102570001092AF051092B0051092B1051092B205FD
:102580001092B3051092B4051092B5051092E905AA
:102590001092E8058093EA059093EB05A093EC0573
:1025A000B093ED052CE131E03093E7052093E6058B
:1025B00028E62093F7061092DB061092DA06809345
:1025C000DC069093DD06A093DE06B093DF068EE274
:1025D00091E09093D9068093D8061092EF0610925E
:1025E000EE061092F1061092F0061092F306109289
:1025F000F2061092F5061092F4066091F6066E7FD0
:102600006D7F6093F6066695617081E068278AE0C9
:102610000E94270461E08AE00E94560406E012E06E
:10262000F80184918093E806C2EFD1E0FE01849125
:10263000E82FF0E0EE0FFF1FE252FE4F85919491DC
:102640009093EA068093E90660E08AE00E945604CF
:102650008091F60681FD04C061E08AE00E942704B3
:102660008AE08093E406F80104910093E506FE01F8
:10267000C491EC2FF0E0EE0FFF1FEC52FE4F85915E
:1026800094919093E7068093E60681E08093C306D9
:1026900084EF95E090939406809393069093F305CE
:1026A0008093F205DF91CF911F910F910895EF92E2
:1026B0000F931F93CF93DF93E80147FD02C034E0EF
:1026C00001C034E1042E000C550B57FF03C0519597
:1026D00041955109E32E022F242FAE010E94371499
:1026E000CE01DF91CF911F910F91EF900895662752
:1026F00077270C949115FC0188279927E89421915C
:102700002032E9F3293010F02E30C8F32B3241F09B
:102710002D3239F4689404C00E941514820F911D63
:10272000219120532A30C0F31EF4909581959F4F3C
:1027300008951F93FC0199278827BC01E894119103
:102740001032E9F3193010F01E30C8F31B3251F08B
:102750001D3249F4689406C00E940014610F711D77
:10276000811D911D119110531A30B0F33EF49095D4
:102770008095709561957F4F8F4F9F4F1F91089562
:1027800091110C94B717803219F089508550C8F711
:10279000089546E057E00E94CE130895FA01A191F2
:1027A000B081009719F41097E1F0CD01DC01CD0163
:1027B0000D90002011F4C00113C0FB0121912223D0
:1027C00019F02015D9F7F3CFFB012191201519F449
:1027D0001E92119606C02223C1F70D900020A1F78A
:1027E000D001FA01A193B0830895BB274A3031F498
:1027F000992322F4BDE2909581959F4F0C941E146D
:10280000592F482F372F262F660F771F881F991FA4
:10281000660F771F881F991F620F731F841F951FF4
:10282000660F771F881F991F08957AE0979F902D54
:10283000879F802D910D11240895BB27FB015527FB
:10284000AA27880F991FAA1FA41710F0A41B83950D
:102850005051B9F7A05DAA3308F0A95DA193009784
:1028600079F7B111B1931192CB010C94D217A9E071
:10287000B0E0EDE3F4E10C9439196A01122FB02EA7
:102880002BE3201720F0FF24F394F00E02C02CE37A
:10289000F22E0F2D27E0AE014F5F5F4F0E94DF1633
:1028A000BC014981842F8970813031F0E1FC06C080
:1028B000E0FE06C090E205C09DE203C09BE201C0BD
:1028C00090E05E2D507143FF3CC0911102C083E047
:1028D00001C084E0811718F4212F281B01C020E0DB
:1028E00051110BC0F601822F30E2882319F0319389
:1028F0008150FBCFC20ED11C20E0992329F0D601D4
:102900009C93F60131966F01C6010396E2FE0AC060
:102910003EE4D6013C9341E411964C9311971296F4
:102920003C9306C03EE6F601308341E641833283A4
:10293000FC01322F40E2332309F442C0419331506D
:10294000FACF42FF44C0911102C083E001C084E08D
:10295000811718F4212F281B01C020E051110BC052
:10296000F601822F30E2882319F031938150FBCF9A
:10297000C20ED11C20E0992329F0D6019C93F601C8
:1029800031966F01C6010396E2FE0BC039E4D60111
:102990003C933EE411963C93119736E412963C9397
:1029A00007C039E6F60130833EE6318336E63283EE
:1029B000FC01322F40E2332319F041933150FBCF19
:1029C000FC01E20FF11D10828EEF9FEFA6C021E007
:1029D00030E0911102C020E030E0161617061CF41A
:1029E000FB01319602C0E1E0F0E02E0F3F1FBB205B
:1029F00021F0EB2DF0E0319602C0E0E0F0E02E0F88
:102A00003F1FE12FF0E02E173F071CF4121B212F70
:102A100001C020E08E2D887159F4F601822F30E23A
:102A2000882319F031938150FBCFC20ED11C20E0D6
:102A3000992329F0D6019C93F60131966F0151112B
:102A40000BC0F601822F90E3882319F091938150F7
:102A5000FBCFC20ED11C20E00F2D060F9A81342F20
:102A6000307144FF03C0913309F40150101624F46F
:102A7000093018F008E001C001E0AB0177FF02C0A7
:102A800040E050E0FB01E41BF50BA1E0B0E0AC0F2F
:102A9000BD1FEA0FFB1F8EE2A82E4B01801A910882
:102AA0000B2D10E01195019511094F3FBFEF5B070A
:102AB00021F4D601AC9211966D01641775072CF0C4
:102AC0008416950614F4818101C080E341505109B8
:102AD0003196D60111967D014017510724F0D60199
:102AE0008C936701E2CF6417750739F4963320F4AD
:102AF000953319F4311101C081E3F6018083F701A8
:102B0000822F90E2882319F091938150FBCFF70137
:102B1000E20FF11D108280E090E02996ECE00C9429
:102B20005519A0E0B0E0E7E9F5E10C943919EC01A2
:102B30006B016115710519F0FB01918380837E01A2
:102B4000FFEFEF1AFF0A0881802F90E00E94C01368
:102B5000892B11F0E701F3CF0D3239F47E0182E0C9
:102B6000E80EF11C098111E008C00B3229F47E0146
:102B700092E0E90EF11C098110E0E701219743E0A2
:102B800050E060E770E0CE010E94BA17892BC1F4D3
:102B9000239645E050E06BE670E0CE010E94BA1744
:102BA000892B09F42596C114D10419F0F601D183BB
:102BB000C0831111F6C060E070E080E89FE7FAC0C2
:102BC00043E050E068E670E0CE010E94BA17892B1E
:102BD00059F4C114D10409F4E9C0F2E0EF0EF11C7C
:102BE000F601F182E082E2C020E030E0A901C0E01D
:102BF000D0E0F70180EDA82EA00E89E08A1530F113
:102C0000912F9260B92E812F887012FF04C081111C
:102C100024C0219622C081112197A5E0B0E00E9436
:102C20002819DC01CB01880F991FAA1FBB1F9C012B
:102C3000AD012A0D311D411D511D283989E9380783
:102C4000480789E1580748F0166006C09EEFA912B0
:102C50000AC013FD40C01860B12E8FEFE81AF80AC1
:102C600000811B2DC6CF802F8F7D8534A1F58081FB
:102C70008D3211F4106106C08B3221F0319661E083
:102C800070E004C08181329662E070E080538A3047
:102C900018F0E61BF70B1FC060E070E060389CE0A6
:102CA00079075CF4DB01AA0FBB1FAA0FBB1F6A0FD9
:102CB0007B1F660F771F680F711D3196DF0111971B
:102CC0008C9180538A3050F314FF03C07195619545
:102CD0007109C60FD71F11FF08C0C114D10429F014
:102CE000CF010197F60191838083CA01B9010E9447
:102CF000E717212F2370233019F04B015C0106C028
:102D00004B015C01B7FAB094B7F8B09420E030E022
:102D1000A901C501B4010E94E217882309F43EC04D
:102D2000D7FF06C0D195C195D10907E810E002C0D0
:102D30000FE910E06801F8E1CF1AD10890E2E92E1E
:102D4000F12CCE15DF0574F0F801259135914591F0
:102D50005491C501B4010E9448184B015C01CE1981
:102D6000DF09EFCF04501109F594E7940C151D0508
:102D700041F78A2D880F8B2D881F8F3F49F020E067
:102D800030E0A901C501B4010E94E217811106C01B
:102D900082E290E09093090780930807C501B4018F
:102DA00009C060E070E080E89FEF04C060E070E080
:102DB00080EC9FE7CDB7DEB7ECE00C9455192830D6
:102DC00008F027E03327DA01990F311D87FD916064
:102DD00000966105710539F432602E5F3D9330E352
:102DE0002A95E1F708959F3F30F08038710561051D
:102DF00009F03C5F3C5F3D93913008F08068911D85
:102E0000DF93CF931F930F93FF92EF92192F987F29
:102E10009695E92F96959695E90FFF27E350FF4F7A
:102E200099273327EE24FF24A701E7010590089492
:102E3000079428F4360FE71EF81E491F511D660F30
:102E4000771F881F991F0694A1F70590079428F40F
:102E5000E70EF81E491F561FC11D770F881F991FC7
:102E6000661F0694A1F70590079428F4F80E491FF1
:102E7000561FC71FD11D880F991F661F771F069405
:102E8000A1F70590079420F4490F561FC71FD81FBC
:102E9000990F661F771F881F0694A9F784911095D4
:102EA000177041F0D695C79557954795F794E794D5
:102EB0001A95C1F7E3EAF0E0689415901591359101
:102EC0006591959105907FE27395E118F10A430BA6
:102ED000560BC90BD009C0F7E10CF11E431F561F5A
:102EE000C91FD01D7EF4703311F48A95E6CFE894A3
:102EF000015030F0080F0AF40027021708F4202FC1
:102F00002395022F7A3328F079E37D932A95E9F708
:102F100010C07D932A9589F6069497956795379505
:102F200017951794E118F10A430B560BC90BD009FA
:102F300098F023957E9173957A3308F070E37C9333
:102F40002013B8F77E9170617D9330F0839571E323
:102F50007D9370E32A95E1F71124EF90FF900F9194
:102F60001F91CF91DF91992787FD9095089599271B
:102F700088270895FB01DC014150504088F08D9175
:102F800081341CF08B350CF4805E659161341CF04B
:102F90006B350CF4605E861B611171F3990B08951B
:102FA000881BFCCFDC01FC01672F71917723E1F7CF
:102FB000329704C07C916D9370836291AE17BF0706
:102FC000C8F308950E94241808F481E00895E89455
:102FD00009C097FB3EF490958095709561957F4F61
:102FE0008F4F9F4F9923A9F0F92F96E9BB2793950F
:102FF000F695879577956795B795F111F8CFFAF41F
:10300000BB0F11F460FF1BC06F5F7F4F8F4F9F4F4F
:1030100016C0882311F096E911C0772321F09EE8AD
:10302000872F762F05C0662371F096E8862F70E013
:1030300060E02AF09A95660F771F881FDAF7880FED
:103040009695879597F90895990F0008550FAA0B43
:10305000E0E8FEEF16161706E807F907C0F01216AB
:103060001306E407F50798F0621B730B840B950BAE
:1030700039F40A2661F0232B242B252B21F4089503
:103080000A2609F4A140A6958FEF811D811D0895A0
:103090000E945B180C94CC180E94BE1838F00E9455
:1030A000C51820F0952311F00C94B5180C94BB189A
:1030B00011240C9400190E94DD1870F3959FC1F340
:1030C000950F50E0551F629FF001729FBB27F00DD6
:1030D000B11D639FAA27F00DB11DAA1F649F66272B
:1030E000B00DA11D661F829F2227B00DA11D621F7A
:1030F000739FB00DA11D621F839FA00D611D221F34
:10310000749F3327A00D611D231F849F600D211D17
:10311000822F762F6A2F11249F5750409AF0F1F09A
:1031200088234AF0EE0FFF1FBB1F661F771F881F03
:1031300091505040A9F79E3F510580F00C94B5186E
:103140000C9400195F3FE4F3983ED4F3869577958D
:103150006795B795F795E7959F5FC1F7FE2B880FA9
:10316000911D9695879597F9089597F99F6780E83F
:1031700070E060E008959FEF80EC089500240A94C9
:103180001616170618060906089500240A94121642
:103190001306140605060895092E0394000C11F475
:1031A000882352F0BB0F40F4BF2B11F460FF04C022
:1031B0006F5F7F4F8F4F9F4F089557FD9058440F7B
:1031C000551F59F05F3F71F04795880F97FB991F86
:1031D00061F09F3F79F08795089512161306140643
:1031E000551FF2CF4695F1DF08C0161617061806D0
:1031F000991FF1CF86957105610508940895E894AB
:10320000BB2766277727CB0197F90895A1E21A2EED
:10321000AA1BBB1BFD010DC0AA1FBB1FEE1FFF1F7A
:10322000A217B307E407F50720F0A21BB30BE40BCA
:10323000F50B661F771F881F991F1A9469F7609511
:103240007095809590959B01AC01BD01CF010895CB
:103250000E946A19A59F900DB49F900DA49F800DA8
:10326000911D112408952F923F924F925F926F9279
:103270007F928F929F92AF92BF92CF92DF92EF9206
:10328000FF920F931F93CF93DF93CDB7DEB7CA1B87
:10329000DB0B0FB6F894DEBF0FBECDBF09942A88B2
:1032A000398848885F846E847D848C849B84AA845A
:1032B000B984C884DF80EE80FD800C811B81AA81E7
:1032C000B981CE0FD11D0FB6F894DEBF0FBECDBFB2
:1032D000ED010895A29FB001B39FC001A39F700D9F
:1032E000811D1124911DB29F700D811D1124911D0E
:1032F00008950E948D190C94CC180E94C51858F09E
:103300000E94BE1840F029F45F3F29F00C94B518D4
:1033100051110C9400190C94BB180E94DD1868F32D
:103320009923B1F3552391F3951B550BBB27AA277E
:1033300062177307840738F09F5F5F4F220F331FB8
:10334000441FAA1FA9F335D00E2E3AF0E0E832D080
:1033500091505040E695001CCAF72BD0FE2F29D083
:10336000660F771F881FBB1F261737074807AB0755
:10337000B0E809F0BB0B802DBF01FF2793585F4FCA
:103380003AF09E3F510578F00C94B5180C94001952
:103390005F3FE4F3983ED4F3869577956795B795AC
:1033A000F7959F5FC9F7880F911D9695879597F9B7
:1033B0000895E1E0660F771F881FBB1F6217730730
:1033C0008407BA0720F0621B730B840BBA0BEE1F45
:1033D00088F7E095089597FB072E16F4009407D020
:1033E00077FD09D00E94FF1907FC05D03EF49095A7
:1033F00081959F4F0895709561957F4F0895AA1B01
:10340000BB1B51E107C0AA1FBB1FA617B70710F0CF
:10341000A61BB70B881F991F5A95A9F78095909501
:10342000BC01CD010895EE0FFF1F0590F491E02D32
:10343000099481E090E0F8940C94F61CFC018191D1
:10344000861721F08823D9F7992708953197CF015E
:103450000895FB0151915523A9F0BF01DC014D9165
:1034600045174111E1F759F4CD010190002049F0D1
:103470004D9140154111C9F3FB014111EFCF81E09E
:1034800090E001970895AEE0B0E0E9E4FAE10C9431
:1034900041190D891E8986E08C831A8309838FEF79
:1034A0009FE79E838D83AE01475E5F4F6F89788D66
:1034B000CE0101960E94651AEF81F885E00FF11F99
:1034C00010822E96E4E00C945D19ABE0B0E0EBE6E0
:1034D000FAE10C9433196C017B018A01FC0117821B
:1034E0001682838181FFCCC1CE0101963C01F60199
:1034F0009381F70193FD859193FF81917F0188234B
:1035000009F4BAC1853239F493FD859193FF819115
:103510007F01853229F4B60190E00E945C1CE7CF60
:10352000912C212C312CFFE1F315D8F08B3279F05E
:1035300038F4803279F08332A1F4232D20611DC04C
:103540008D3261F0803369F4232D216016C0832D04
:103550008260382EE32DE4603E2E2AC0F32DF86001
:103560001DC037FC2DC020ED280F2A3040F08E32D0
:10357000B9F436FC81C1232D2064322E19C036FEE9
:1035800006C08AE0989E200D1124922E11C0EAE018
:103590002E9E200D1124222EF32DF0623F2E08C006
:1035A0008C3621F4832D8068382E02C0883641F491
:1035B000F70193FD859193FF81917F018111B3CF35
:1035C000982F9F7D9554933028F40C5F1F4F9FE3F5
:1035D00099830DC0833631F0833771F0833509F05C
:1035E00059C021C0F801808189830E5F1F4F882454
:1035F0008394912C530113C02801F2E04F0E511C0B
:10360000F801A080B18036FE03C0692D70E002C0D1
:103610006FEF7FEFC5010E94511C4C018201F32D19
:10362000FF773F2E16C0280122E0420E511CF80100
:10363000A080B18036FE03C0692D70E002C06FEF3C
:103640007FEFC5010E94461C4C01F32DF0683F2E10
:10365000820133FC1BC0822D90E088169906B0F4DD
:10366000B60180E290E00E945C1C2A94F4CFF50140
:1036700037FC859137FE81915F01B60190E00E9491
:103680005C1C21102A9421E0821A91088114910473
:1036900071F7E8C0843611F0893641F5F80137FE3C
:1036A00007C060817181828193810C5F1F4F08C0C8
:1036B00060817181072E000C880B990B0E5F1F4FE4
:1036C000F32DFF763F2E97FF09C09095809570955A
:1036D00061957F4F8F4F9F4FF0683F2E2AE030E07B
:1036E000A3010E94981C882E861845C0853731F4A6
:1036F000232D2F7EB22E2AE030E025C0932D997F16
:10370000B92E8F36C1F018F4883579F0B5C08037FE
:1037100019F0883721F0B0C0E92FE061BE2EB4FE69
:103720000DC0FB2DF460BF2E09C034FE0AC0292F46
:103730002660B22E06C028E030E005C020E130E06F
:1037400002C020E132E0F801B7FE07C0608171815C
:10375000828193810C5F1F4F06C06081718180E080
:1037600090E00E5F1F4FA3010E94981C882E8618C0
:10377000FB2DFF773F2E36FE0DC0232D2E7FA22E70
:10378000891458F434FE0BC032FC09C0832D8E7EA0
:10379000A82E05C0B82CA32C03C0B82C01C0B92C8E
:1037A000A4FE0FC0FE01E80DF11D8081803321F4DD
:1037B0009A2D997EA92E09C0A2FE06C0B394B39497
:1037C00004C08A2D867809F0B394A3FC11C0A0FE32
:1037D00006C0B21488F4280C922C9B180EC0B214A8
:1037E00060F4B60180E290E00E945C1CB394F7CFD5
:1037F000B21418F42B1802C0982C212CA4FE10C06F
:10380000B60180E390E00E945C1CA2FE17C0A1FC00
:1038100003C088E790E002C088E590E0B6010CC0E4
:103820008A2D867859F0A1FE02C08BE201C080E2A9
:10383000A7FC8DE2B60190E00E945C1C891438F46C
:10384000B60180E390E00E945C1C9A94F7CF8A94C2
:10385000F301E80DF11D8081B60190E00E945C1C2F
:103860008110F5CF222009F442CEB60180E290E02B
:103870000E945C1C2A94F6CFF6018681978102C0D3
:103880008FEF9FEF2B96E2E10C944F19FC0105900E
:10389000615070400110D8F7809590958E0F9F1F52
:1038A0000895FC016150704001900110D8F7809597
:1038B00090958E0F9F1F08950F931F93CF93DF93C3
:1038C000FB01238121FD03C08FEF9FEF2CC022FF5E
:1038D00016C046815781248135814217530744F42D
:1038E000A081B1819D012F5F3F4F318320838C9355
:1038F000268137812F5F3F4F3783268314C08B018A
:10390000EC01FB010084F185E02D0995892BE1F69E
:10391000D80116968D919C911797019617969C93B6
:103920008E931697CE01DF91CF911F910F9108953D
:10393000FA01AA27283051F1203181F1E8946F93E0
:103940006E7F6E5F7F4F8F4F9F4FAF4FB1E03ED086
:10395000B4E03CD0670F781F891F9A1FA11D680F24
:10396000791F8A1F911DA11D6A0F711D811D911D57
:10397000A11D20D009F468943F912AE0269F1124CC
:103980003019305D3193DEF6CF010895462F477030
:10399000405D4193B3E00FD0C9F7F6CF462F4F708B
:1039A000405D4A3318F0495D31FD4052419302D0E9
:1039B000A9F7EACFB4E0A69597958795779567958F
:1039C000BA95C9F700976105710508959B01AC018F
:1039D0000A2E06945795479537952795BA95C9F7B6
:1039E000620F731F841F951FA01D089511E0C9E089
:1039F000D1E004C0FE010E94131A2196CA30D107FB
:063A0000C9F7F894FFCFA6
:103A06003B023B02E803000000009D01BD083401B3
:103A1600EA0165014301570100000000C9029C024A
:103A26009A0378023C028802790200000000100323
:103A3600BD089A03780260037803F802564D445095
:103A4600565F317C315F564D4450560D0A00496E23
:103A560069740041540D0A004F4B0D0A0041542B66
:103A66004346554E3D310D0A0041542B4350494EB5
:103A76003F0D0A002B4350494E3A205245414459C6
:103A86000041542B43474E535057523D310D0A00C7
:103A960041542B43474E535453543D310D0A00585D
:103AA600652062616E2062692072756E67005865D6
:103AB6002067617020737520636F206E67757920AB
:103AC6006869656D00244750524D43002C004154EF
:103AD6002B434D47463D310D0A004F4B0041542BB9
:103AE600434D474C3D2252454320554E5245414495
:103AF600222C310D0A002B434D474C3A0041542BE2
:103B0600434D47523D002B434D47523A0041542BFB
:103B1600434D47443D000D00766974726900446167
:103B26006E672074696D207669207472692047502B
:103B36005300626174004461206261742063687599
:103B46006F6E672062616F00746174004461207457
:103B56006174206368756F6E672062616F005369D8
:103B66006D38303820696E6974206572726F720D17
:103B76000A0053494D20696E697420646F6E6500B2
:103B860053696D3830382067707320696E69742008
:103B96006661696C0D0A0068747470733A2F2F6D34
:103BA6006170732E676F6F676C652E636F6D2F6D17
:103BB6006170732F706C6163652F25732C257300FC
:103BC60041542B434D47533D220030393831373667
:0C3BD6003238323600220D0A003E00009A
:00000001FF
